:040000008DEF0DF083
:1008000000456E676C69736820202020202020201E
:100810002000506F7274756775657320202020204A
:100820002020004368616E67652074696D65202033
:100830002020004368616E676520616C61726D20E5
:10084000202000416C74657261722074656D706F58
:10085000202000416C7465726172206964696F6D5B
:10086000612000416C746572617220616C61726D0F
:100870006520004368616E6765206C616E67756115
:10088000676500202020202020202020202000003C
:10089000000E2A6E050E296E01EC0FF0216E21501C
:1008A0002B6E2C6A3A502B1809E13B502C18D8B407
:1008B0005CEF04F05EEF04F07FEF04F02BA063EF39
:1008C00004F065EF04F069EF04F0000E2A6E030EE9
:1008D000296E2BA26EEF04F070EF04F074EF04F0B9
:1008E000000E2A6E020E296E2BA479EF04F07BEF26
:1008F00004F07FEF04F0000E2A6E040E296E2BC068
:100900003AF02CC03BF006EC0EF0466E4650D8B4E0
:100910008CEF04F08EEF04F071EF05F04750D8B47F
:1009200094EF04F096EF04F09FEF04F04750300F7F
:10093000D96EDA6A46C0DFFF472ACCEF04F0770EA3
:100940004618D8A4A6EF04F0A8EF04F0AEEF04F028
:10095000000E2A6E040E296ECCEF04F0610E4618CC
:10096000D8A4B5EF04F0B7EF04F0BDEF04F0000E2B
:100970002A6E020E296ECCEF04F0640E4618D8A43D
:10098000C4EF04F0C6EF04F0CCEF04F0000E2A6EC2
:10099000030E296ECCEF04F0700E4618D8A4D3EFE6
:1009A00004F0D5EF04F071EF05F04750D8A4DBEF69
:1009B00004F0DDEF04F0E1EF04F0010E476E71EF9B
:1009C00005F0000E476E540E3118D8A4EAEF04F07B
:1009D000ECEF04F019EF05F032C001F0026A030EEB
:1009E000046EE80E036E82EC0EF034500A0DF3CF65
:1009F00021F0F4CF22F03350640DF3CF23F0F4CF85
:100A000024F021502324256E22502420266E0150EC
:100A10002524276E02502620286E35502726000EEA
:100A20002822B00E2724176E2F0E2820186EABEC4C
:100A30000CF04C0E3118D8A420EF05F022EF05F091
:100A400039EF05F035C021F0D00E2126010E211618
:100A500034500A0DF3CF22F03350640DF3CF23F05E
:100A60003250E80DF350232422242124E00FC2EC5D
:100A70000EF0410E3118D8A440EF05F042EF05F01A
:100A800071EF05F032C001F0026A030E046EE80E49
:100A9000036E82EC0EF034500A0DF3CF21F0F4CF48
:100AA00022F03350640DF3CF23F0F4CF24F0215023
:100AB0002324256E22502420266E01502524276EE3
:100AC00002502620286E35502726000E2822B00E10
:100AD00027241D6E2F0E28201E6E6FEC0EF071EF76
:100AE00005F029C01FF02AC020F0120002BE84EFDA
:100AF00005F0025007E1080E015CD8B082EF05F066
:100B000084EF05F0AEEF05F003500410D8B48BEF7E
:100B100005F08DEF05F09DEF05F001C005F0010E29
:100B2000066E052A96EF05F0D8900636052E94EF4E
:100B300005F0065092129CEF06F001C005F0010E80
:100B4000066E052AA6EF05F0D8900636052EA4EF0E
:100B500005F00650FF0A92169CEF06F002BEBCEFAD
:100B600005F0025007E1100E015CD8B0BAEF05F0B5
:100B7000BCEF05F0EAEF05F003500410D8B4C3EF62
:100B800005F0C5EF05F0D7EF05F001C005F0F80E50
:100B90000526010E066E052AD0EF05F0D890063620
:100BA000052ECEEF05F0065093129CEF06F001C023
:100BB00005F0F80E0526010E066E052AE2EF05F097
:100BC000D8900636052EE0EF05F00650FF0A931682
:100BD0009CEF06F002BEF8EF05F0025007E1180E98
:100BE000015CD8B0F6EF05F0F8EF05F026EF06F05F
:100BF00003500410D8B4FFEF05F001EF06F013EF37
:100C000006F001C005F0F00E0526010E066E052A5D
:100C10000CEF06F0D8900636052E0AEF06F00650C7
:100C200094129CEF06F001C005F0F00E0526010EAF
:100C3000066E052A1EEF06F0D8900636052E1CEF2C
:100C400006F00650FF0A94169CEF06F002BE34EF41
:100C500006F0025007E1200E015CD8B032EF06F03A
:100C600034EF06F062EF06F003500410D8B43BEF07
:100C700006F03DEF06F04FEF06F001C005F0E80E7C
:100C80000526010E066E052A48EF06F0D8900636B6
:100C9000052E46EF06F0065095129CEF06F001C0B7
:100CA00005F0E80E0526010E066E052A5AEF06F03D
:100CB000D8900636052E58EF06F00650FF0A951616
:100CC0009CEF06F002BE70EF06F0025007E1280E1E
:100CD000015CD8B06EEF06F070EF06F09CEF06F006
:100CE00003500410D8B477EF06F079EF06F08BEFDD
:100CF00006F001C005F0E00E0526010E066E052A7D
:100D000084EF06F0D8900636052E82EF06F00650E6
:100D100096129CEF06F001C005F0E00E0526010ECC
:100D2000066E052A96EF06F0D8900636052E94EF4B
:100D300006F00650FF0A9616120002BEABEF06F050
:100D4000025007E1080E015CD8B0A9EF06F0ABEF46
:100D500006F0D5EF06F003500410D8B4B2EF06F059
:100D6000B4EF06F0C4EF06F001C005F0010E066E08
:100D7000052ABDEF06F0D8900636052EBBEF06F02B
:100D800006508012C3EF07F001C005F0010E066E99
:100D9000052ACDEF06F0D8900636052ECBEF06F0EB
:100DA0000650FF0A8016C3EF07F002BEE3EF06F01D
:100DB000025007E1100E015CD8B0E1EF06F0E3EF5E
:100DC00006F011EF07F0F80E0126FF0E0222035085
:100DD0000410D8B4EEEF06F0F0EF06F000EF07F0E5
:100DE00001C005F0010E066E052AF9EF06F0D89055
:100DF0000636052EF7EF06F006508112C3EF07F016
:100E000001C005F0010E066E052A09EF07F0D89023
:100E10000636052E07EF07F00650FF0A8116C3EFCE
:100E200007F002BE1FEF07F0025007E1180E015C49
:100E3000D8B01DEF07F01FEF07F04DEF07F0F00EF1
:100E40000126FF0E022203500410D8B42AEF07F047
:100E50002CEF07F03CEF07F001C005F0010E066E25
:100E6000052A35EF07F0D8900636052E33EF07F048
:100E700006508212C3EF07F001C005F0010E066EA6
:100E8000052A45EF07F0D8900636052E43EF07F008
:100E90000650FF0A8216C3EF07F002BE5BEF07F0B1
:100EA000025007E1200E015CD8B059EF07F05BEF6C
:100EB00007F089EF07F0E80E0126FF0E022203502B
:100EC0000410D8B466EF07F068EF07F078EF07F08A
:100ED00001C005F0010E066E052A71EF07F0D890EB
:100EE0000636052E6FEF07F006508312C3EF07F0AA
:100EF00001C005F0010E066E052A81EF07F0D890BB
:100F00000636052E7FEF07F00650FF0A8316C3EF63
:100F100007F002BE97EF07F0025007E1280E015CD0
:100F2000D8B095EF07F097EF07F0C3EF07F0E00EAA
:100F30000126FF0E022203500410D8B4A2EF07F0DE
:100F4000A4EF07F0B4EF07F001C005F0010E066E44
:100F5000052AADEF07F0D8900636052EABEF07F067
:100F600006508412C3EF07F001C005F0010E066EB3
:100F7000052ABDEF07F0D8900636052EBBEF07F027
:100F80000650FF0A8416120048EC04F01F50306E21
:100F90005EEF08F0030E3018D8A4D1EF07F0D3EFBE
:100FA00007F0DDEF07F035EC0CF0010E19241D6E93
:100FB000000E1A201E6E6FEC0EF0020E3018D8A430
:100FC000E4EF07F0E6EF07F0F0EF07F035EC0CF098
:100FD000FF0E19241D6EFF0E1A201E6E6FEC0EF010
:100FE000040E3018D8A4F7EF07F0F9EF07F06EEF12
:100FF00008F0010EEEEC0EF06EEF08F0030E301864
:10100000D8A405EF08F007EF08F011EF08F039EC6D
:101010000DF0010E1324176E000E1420186EABECA9
:101020000CF0020E3018D8A418EF08F01AEF08F0F0
:1010300024EF08F039EC0DF0FF0E1324176EFF0EAD
:101040001420186EABEC0CF0040E3018D8A42BEF63
:1010500008F02DEF08F06EEF08F0020EEEEC0EF047
:101060006EEF08F0030E3018D8A439EF08F03BEF0C
:1010700008F041EF08F0DAEC0EF02D6E2D28C2ECEE
:101080000EF0020E3018D8A448EF08F04AEF08F02E
:1010900050EF08F0DAEC0EF02D6E2D04C2EC0EF0DD
:1010A000040E3018D8A457EF08F059EF08F06EEF8F
:1010B00008F0000EEEEC0EF06EEF08F0FFEC0EF014
:1010C000000AD8B4CAEF07F0010AD8B4FEEF07F05F
:1010D000030AD8B432EF08F06EEF08F0DAEC0EF045
:1010E0002D6E2D502E6E2F6AFFEC0EF02D6E2D50B2
:1010F000196E1A6A2EC01BF02FC01CF0B3EC09F059
:10110000120002BE8FEF08F0025007E1080E015CEA
:10111000D8B08DEF08F08FEF08F0A3EF08F001C012
:1011200003F0010E046E032A98EF08F0D8900436FD
:10113000032E96EF08F004508014056E0550016EE2
:10114000026A35EF09F002BEB1EF08F0025007E184
:10115000100E015CD8B0AFEF08F0B1EF08F0C7EFA8
:1011600008F001C003F0F80E0326010E046E032AF6
:10117000BCEF08F0D8900436032EBAEF08F0045004
:101180008114056E0550016E026A35EF09F002BE4A
:10119000D5EF08F0025007E1180E015CD8B0D3EF8C
:1011A00008F0D5EF08F0EBEF08F001C003F0F00E07
:1011B0000326010E046E032AE0EF08F0D8900436EF
:1011C000032EDEEF08F004508214056E0550016E08
:1011D000026A35EF09F002BEF9EF08F0025007E1AC
:1011E000200E015CD8B0F7EF08F0F9EF08F00FEF30
:1011F00009F001C003F0E80E0326010E046E032A75
:1012000004EF09F0D8900436032E02EF09F00450E1
:101210008314056E0550016E026A35EF09F002BEB7
:101220001DEF09F0025007E1280E015CD8B01BEF5A
:1012300009F01DEF09F033EF09F001C003F0E00EF3
:101240000326010E046E032A28EF09F0D890043615
:10125000032E26EF09F004508414056E0550016E2C
:10126000026A35EF09F001680268120018BE3DEF0E
:1012700009F03BEF09F044EF09F0176C181ED8B0E5
:10128000182A2D0EA6EC0EF0270E046E100E036E1B
:1012900017C001F018C002F02BEC0AF001C009F0F1
:1012A00002C00AF0000E0C6E0A0E0B6E8DEC0AF0F6
:1012B0000950300FA6EC0EF0030E046EE80E036E1C
:1012C00017C001F018C002F02BEC0AF001C009F0C1
:1012D00002C00AF0000E0C6E0A0E0B6E8DEC0AF0C6
:1012E0000950300FA6EC0EF0000E046E640E036E73
:1012F00017C001F018C002F02BEC0AF001C009F091
:1013000002C00AF0000E0C6E0A0E0B6E8DEC0AF095
:101310000950300FA6EC0EF0000E046E0A0E036E9C
:1013200017C001F018C002F02BEC0AF001C009F060
:1013300002C00AF0000E0C6E0A0E0B6E8DEC0AF065
:101340000950300FA6EC0EF017C009F018C00AF0D3
:10135000000E0C6E0A0E0B6E8DEC0AF00950300F69
:10136000A6EC0EF0120019041A10D8A4BAEF09F076
:10137000BCEF09F0D9EF09F0800ECFEC0CF019505A
:10138000020DF3504C0F1B24D96EDA6ADF50046E45
:1013900086EC0CF0C00ECFEC0CF039EC0DF013C065
:1013A00017F014C018F036EC09F0830E046E86ECCA
:1013B0000CF019501A10D8A4E0EF09F0E2EF09F090
:1013C000F3EF09F0800ECFEC0CF01950020DF35042
:1013D0004C0F1B24D96EDA6ADF50046E86EC0CF0D9
:1013E000C00ECFEC0CF0020E19181A10D8A4FBEFA7
:1013F00009F0FDEF09F02AEF0AF0800ECFEC0CF0B7
:101400001950020DF3504C0F1B24D96EDA6ADF50CD
:10141000046E86EC0CF0C00ECFEC0CF0DAEC0EF0A3
:101420000009D8A416EF0AF018EF0AF01CEF0AF032
:10143000120E046E86EC0CF0DAEC0EF0E806D8A47E
:1014400024EF0AF026EF0AF02AEF0AF0010E046EEC
:1014500086EC0CF01200000E066E04BE34EF0AF0AB
:1014600032EF0AF03AEF0AF0036C041ED8B0042AF7
:10147000010E066E02BE41EF0AF03FEF0AF047EFA1
:101480000AF0016C021ED8B0022A010E061A000EE4
:10149000086E000E076E03500410D8B452EF0AF025
:1014A00054EF0AF07CEF0AF0010E056E5CEF0AF0D3
:1014B000D89003360436052A04AE61EF0AF063EFD4
:1014C0000AF058EF0AF0D890073608360350015C4E
:1014D00004500258D8A06FEF0AF071EF0AF076EFCF
:1014E0000AF00350015E0450025A0780D89004327B
:1014F0000332052E63EF0AF00650D8B482EF0AF0EB
:1015000084EF0AF088EF0AF0076C081ED8B0082AAA
:1015100007C001F008C002F01200000E0E6E0ABEF5
:1015200096EF0AF094EF0AF09CEF0AF0096C0A1E9D
:10153000D8B00A2A010E0E6E0CBEA3EF0AF0A1EF7E
:101540000AF0A7EF0AF00B6C0C1ED8B00C2A0B5057
:101550000C10D8B4AEEF0AF0B0EF0AF0D4EF0AF0F6
:10156000010E0D6EB8EF0AF0D8900B360C360D2A2E
:101570000CAEBDEF0AF0BFEF0AF0B4EF0AF00B506B
:10158000095C0C500A58D8A0C8EF0AF0CAEF0AF05C
:10159000CEEF0AF00B50095E0C500A5AD8900C326C
:1015A0000B320D2EBFEF0AF00E50D8B4DAEF0AF06E
:1015B000DCEF0AF0E0EF0AF0096C0A1ED8B00A2A44
:1015C00009C009F00AC00AF0120081B4EAEF0AF07B
:1015D000ECEF0AF0EFEF0AF04980F0EF0AF04990E3
:1015E00081B6F5EF0AF0F7EF0AF0FAEF0AF0498258
:1015F000FBEF0AF0499281BA00EF0BF002EF0BF01B
:1016000005EF0BF0498406EF0BF0499481B80BEF1E
:101610000BF00DEF0BF010EF0BF0498611EF0BF014
:10162000499684B216EF0BF018EF0BF01BEF0BF09E
:1016300049881CEF0BF0499849505218D8A423EF61
:101640000BF025EF0BF028EF0BF04A062CEF0BF018
:101650000A0E4A6E49C052F04A50D8A432EF0BF03D
:1016600034EF0BF036EF0BF052C04BF012009590B8
:10167000959E959C959A95989594000E046EEFEC26
:101680000DF0042A060E046448EF0BF04AEF0BF04D
:101690003FEF0BF0000E016E300E73EC0BF0EFEC31
:1016A0000DF0000E016E300E73EC0BF0EFEC0DF050
:1016B000000E016E300E73EC0BF0EFEC0DF0000E2F
:1016C000016E200E73EC0BF0EFEC0DF0280ECFEC5A
:1016D0000CF0060ECFEC0CF00C0ECFEC0CF0010E63
:1016E000CFEC0CF01200026E0150D8B47AEF0BF080
:1016F0007CEF0BF07FEF0BF0838080EF0BF083909B
:1017000002AE85EF0BF087EF0BF08AEF0BF08384CE
:101710008BEF0BF0839402AC90EF0BF092EF0BF099
:1017200095EF0BF0838896EF0BF0839802AA9BEF5E
:101730000BF09DEF0BF0A0EF0BF0838AA1EF0BF005
:10174000839A02A8A6EF0BF0A8EF0BF0ABEF0BF01B
:10175000838CACEF0BF0839CFCEC0EF012000A6E55
:101760000A50D8B4B6EF0BF0B8EF0BF0BAEF0BF0AD
:1017700016EC0DF0000E0B6E09BEC1EF0BF0C4EFBE
:101780000BF0010EC5EF0BF0000EDFEC0BF0D89064
:1017900009360B2A070E0B64D0EF0BF0D2EF0BF0DB
:1017A000BCEF0BF0A8EC0DF00850D8B4DAEF0BF05A
:1017B000DCEF0BF0DEEF0BF0D8EC0DF01200076E53
:1017C0000750D8B4E6EF0BF0E8EF0BF0ECEF0BF0BE
:1017D00055EC0DF0EEEF0BF031EC0EF003EC0FF0EA
:1017E00071EC0DF00009D8B4F8EF0BF0FAEF0BF044
:1017F000F0EF0BF00750D8B400EF0CF002EF0CF054
:1018000004EF0CF055EC0DF003EC0FF046EC0EF08D
:1018100003EC0FF012000A6E000E0D6E000E0C6E3F
:10182000000E0B6EA8EC0DF0096E0D500D24091082
:101830000D6E0B4A0C2A0C5009E1080E0B5CD8A067
:1018400024EF0CF026EF0CF012EF0CF00A50DFEC56
:101850000BF00850D8B42FEF0CF031EF0CF033EF51
:101860000CF0D8EC0DF00D501200000E0F6E040EAF
:101870000E6EF3EC0CF00E503F6E000E0F6E050E68
:101880000E6EF3EC0CF00E503E6EC00ECFEC0CF072
:101890003FC017F0186A36EC09F03EC017F0186A1E
:1018A00036EC09F03E503FC01BF01C6A1BC01CF018
:1018B0001B6A1B10196E1C501A6E12000FC001F02B
:1018C00010C002F0000E046E0A0E036E2BEC0AF03C
:1018D00001C011F002C012F0113A123AF00E1216C5
:1018E00011500F0B1212F00E11160FC009F010C09C
:1018F0000AF0000E0C6E0A0E0B6E8DEC0AF0095009
:1019000011240F6E0A501220106E1200000E076E86
:10191000000E066E99EF0CF004500624056E05C00B
:10192000F6FF080EF76E0800F550A6EC0EF0064A1A
:10193000072A04500624056E05C0F6FF080EF76E50
:101940000800F5500009D8A4A8EF0CF0AAEF0CF09D
:101950008CEF0CF0120017C00FF018C010F05EEC06
:101960000CF010C00FF0106A0FBE10680F50416EDF
:1019700017C00FF018C010F05EEC0CF00F50406E66
:10198000000E0D6E000E0C6E4150C1EC0DF0000EFD
:101990000D6E010E0C6E4050C1EC0DF01200036E86
:1019A000000E016E035073EC0BF0000E016E033855
:1019B000F00B73EC0BF0020E0318D8B4E2EF0CF04E
:1019C000E4EF0CF0ECEF0CF00304D8A4EAEF0CF019
:1019D000ECEF0CF0F0EF0CF0EFEC0DF0F2EF0CF0A0
:1019E000CEEC0EF01200000E086EDE0E096E010E37
:1019F000AFEC0BF0000E086E0EC009F0000EAFEC5D
:101A00000BF0000E086EDF0E096E010EAFEC0BF04E
:101A1000010E086E010E0BEC0CF0106E1050116EE2
:101A2000126A11C00EF012C00FF012004850D8B464
:101A30001CEF0DF01EEF0DF02EEF0DF055EC0DF03C
:101A400003EC0FF071EC0DF00009D8B42AEF0DF0A3
:101A50002CEF0DF022EF0DF003EC0FF055EC0DF034
:101A600031EC0EF003EC0FF046EC0EF0010E486E78
:101A70001200000E0F6E000E0E6EF3EC0CF00E5006
:101A8000436E000E0F6E010E0E6EF3EC0CF00E5056
:101A9000426E425043C015F0166A15C016F0156A22
:101AA0001510136E1650146E1200000E026E080E02
:101AB000016E000E046E010E036E76EC05F0000E52
:101AC000026E080E016E81EC08F001500210D8A4DD
:101AD0006CEF0DF06FEF0DF0010E70EF0DF0000EDA
:101AE0001200000E026E090E016E000E046E010E51
:101AF000036E76EC05F0000E026E090E016E81ECAD
:101B000008F001500210D8A488EF0DF08BEF0DF013
:101B1000010E8CEF0DF0000E1200E40EF66E1D0E9D
:101B2000F76E000EF86E00EE4CF010EE07F00900B4
:101B3000F5CFEEFFE550E150FAE100EE31F01B0E7B
:101B4000EE6AE806FDE1000EF86E00015BEF0EF0B4
:101B500055EC0DF003EC0FF071EC0DF00009D8B46A
:101B6000B4EF0DF0B6EF0DF0ACEF0DF055EC0DF05D
:101B7000076E03EC0FF046EC0EF003EC0FF007508D
:101B800012000E6E000E086EDE0E096E010EAFEC36
:101B90000BF0000E086E0CC009F0000EAFEC0BF05D
:101BA000010E086E0EC009F0000EAFEC0BF0120033
:101BB00031EC0EF003EC0FF071EC0DF00009D8B42D
:101BC000E4EF0DF0E6EF0DF0DCEF0DF003EC0FF0BD
:101BD00055EC0DF003EC0FF0000E486E1200000EF5
:101BE000016E000E026E022AB10E0264FAEF0DF0D1
:101BF000FCEF0DF0F3EF0DF0012A130E016403EF7B
:101C00000EF005EF0EF0F1EF0DF01200000E016E78
:101C1000ABA20DEF0EF00FEF0EF011EF0EF0AB9840
:101C2000AB889EAA16EF0EF018EF0EF01AEF0EF02A
:101C3000AECF01F001501200000E026E080E016ED0
:101C4000000E046E010E036E76EC05F0000E026EBF
:101C5000090E016E000E046E010E036E76EC05F0A7
:101C60001200000E026E080E016E000E046E000ED1
:101C7000036E76EC05F0000E026E080E016E000E8B
:101C8000046E000E036E9DEC06F01200000E026E54
:101C9000090E016E000E046E000E036E76EC05F068
:101CA000000E026E090E016E000E046E000E036E31
:101CB0009DEC06F01200B5EC0EF0E9EC0EF037ECFE
:101CC0000BF095EC0EF0E2EC0EF0F9EC0EF0E5EC1A
:101CD0000AF0C4EC07F067EF0EF000EF00F01E50C2
:101CE0003D6E1DC03CF0000E0D6E040E0C6E3D509E
:101CF000C1EC0DF0000E0D6E050E0C6E3C50C1ECEB
:101D00000DF0120001500302F3CF05F0F4CF06F0FE
:101D100001500402F350062602500302F350062637
:101D200005C001F006C002F01200F6EC0EF0000E45
:101D3000456E000E186E000E176EABEC0CF0000E28
:101D40001E6E000E1D6E6FEC0EF01200036E010E83
:101D5000016E035073EC0BF0010E016E0338F00BB3
:101D600073EC0BF0CEEC0EF012002C0EAC6E900E5D
:101D7000AB6E080EB86E000EB06E220EAF6E948C75
:101D8000948E12000F6E0F50010B446E000E0D6EFC
:101D9000060E0C6E4450C1EC0DF01200000E016EE8
:101DA000012A430E0164D7EF0EF0D9EF0EF0D0EF09
:101DB0000EF01200000E0F6E060E0E6EF3EC0CF01D
:101DC0000E501200E9EC0EF0000E3B6E000E3A6E63
:101DD000120093680E0EC16E96821200016E01C051
:0B1DE00045F0120063334323537301EE
:101DEC001CEC0EF0120037EC0BF01200838E839E6D
:0C1DFC001200455012004B501200120063
:020000040030CA
:08000000000C1F1EFF8381FFAD
:00000001FF
