:0400000011EF31F0DB
:105C37000112005E50120058501200838E839E128C
:105C4700007FEC32F0120077EC2FF01200016E01AA
:105C5700C058F0120093680E0EC16E968212003F74
:105C6700C001F040C002F012002EEC2EF0000E4EE4
:105C77006E000E4D6E1200000E0F6E020E0E6ECAF3
:105C8700EC30F00E501200000E0F6E260E0E6ECA8C
:105C9700EC30F00E501200000E0F6E010E0E6ECAA1
:105CA700EC30F00E501200000E0F6E000E0E6ECA92
:105CB700EC30F00E501200928A110EC26E0A0EC11D
:105CC7006EAA0EC06E12005FEC2EF0E7EC2FF0010B
:105CD700C03FF002C040F0120027EC2EF0000E5833
:105CE7006E47EC2EF0030B91EC2EF01200016E9E26
:105CF700A880EF2EF082EF2EF07BEF2EF001C0ADE3
:105D0700FF1200000E016E012A430E01648EEF2E72
:105D1700F090EF2EF087EF2EF012000F6E0F50036A
:105D27000B576E000E0D6E260E0C6E5750D0EC2FD3
:105D3700F012002C0EAC6E900EAB6E080EB86E0013
:105D47000EB06E220EAF6E948C948E12001EC00F92
:105D5700F01FC010F0200E116E44EC34F0200E132B
:105D67006E146AE4EC31F01200036E010E016E034B
:105D77005043EC32F0010E016E0338F00B43EC3266
:105D8700F085EC2EF0120001500302F3CF05F0F47A
:105D9700CF06F001500402F350062602500302F327
:105DA70050062605C001F006C002F0120018505038
:105DB7006E17C04FF0000E0D6E240E0C6E5050D0B3
:105DC700EC2FF0000E0D6E250E0C6E4F50D0EC2F01
:105DD700F012001850546E17C053F0000E0D6E22CB
:105DE7000E0C6E5450D0EC2FF0000E0D6E230E0CDF
:105DF7006E5350D0EC2FF012000F6E170E0F640782
:105E0700EF2FF009EF2FF00BEF2FF0000E0F6E00C2
:105E17000E0D6E020E0C6E0F50D0EC2FF012000F0D
:105E27006E3B0E0F641AEF2FF01CEF2FF01EEF2FB3
:105E3700F0000E0F6E000E0D6E010E0C6E0F50D09F
:105E4700EC2FF012000F6E3B0E0F642DEF2FF02F8B
:105E5700EF2FF031EF2FF0000E0F6E000E0D6E00DA
:105E67000E0C6E0F50D0EC2FF012009DEC2EF02E82
:105E7700EC2EF07FEC32F070EC2EF038EC2EF024A4
:105E8700EC2EF0BBEC32F044EC39F045EF2FF0008C
:105E9700EF00F0000E026E090E016E000E046E0098
:105EA7000E036ECBEC36F0000E026E090E016E008B
:105EB7000E046E000E036EA4EC35F01200000E0205
:105EC7006E080E016E000E046E000E036ECBEC36EC
:105ED700F0000E026E080E016E000E046E000E0337
:105EE7006EA4EC35F01200000E026E080E016E0073
:105EF7000E046E010E036ECBEC36F0000E026E0937
:105F07000E016E000E046E010E036ECBEC36F0121E
:105F170000000E016EABA293EF2FF095EF2FF097D5
:105F2700EF2FF0AB98AB889EAA9CEF2FF09EEF2F38
:105F3700F0A0EF2FF0AECF01F001501200000E01DC
:105F47006E000E026E022AB10E0264ADEF2FF0AFA3
:105F5700EF2FF0A6EF2FF0012A130E0164B6EF2FF3
:105F6700F0B8EF2FF0A4EF2FF0120062EC2FF01C27
:105F7700EC2EF017EC30F00009D8B4C5EF2FF0C7BE
:105F8700EF2FF0BDEF2FF01CEC2EF033EC30F01CB0
:105F9700EC2EF0000E5B6E12000E6E000E086EDE29
:105FA7000E096E010E13EC32F0000E086E0CC009DC
:105FB700F0000E13EC32F0010E086E0EC009F0006F
:105FC7000E13EC32F01200C282C2B2EDEF2FF0EFE7
:105FD700EF2FF0E8EF2FF0C4CF03F0046A0350046B
:105FE7006E036AC3500326000E042203C001F004A7
:105FF700C002F0120033EC30F01CEC2EF017EC303E
:10600700F00009D8B40AEF30F00CEF30F002EF30AF
:10601700F033EC30F0076E1CEC2EF04DEC2FF01C3B
:10602700EC2EF007501200000E026E090E016E00F2
:106037000E046E010E036ECBEC36F0000E026E09F5
:106047000E016EEFEC34F001500210D8A42EEF30A1
:10605700F031EF30F0010E32EF30F0000E12000099
:106067000E026E080E016E000E046E010E036ECB5B
:10607700EC36F0000E026E080E016EEFEC34F00104
:10608700500210D8A44AEF30F04DEF30F0010E4E19
:10609700EF30F0000E1200000E0F6E240E0E6ECAC7
:1060A700EC30F00E50526E000E0F6E250E0E6ECABB
:1060B700EC30F00E50516E515052C015F0166A1563
:1060C700C016F0156A1510136E1650146E120000E4
:1060D7000E0F6E220E0E6ECAEC30F00E50566E008A
:1060E7000E0F6E230E0E6ECAEC30F00E50556E5525
:1060F7005056C015F0166A15C016F0156A1510131C
:106107006E1650146E1200577F697EBD7F687F350B
:106117007F7A7EAC7F467FAD7E587E9C7E8B7E47A6
:106127007E037EBE7E367E257EF27D137F147EE063
:106137007E247FF17ECF7E9B7F8A7F027F797FDC03
:106147007FCE7FF57FE97F5B50D8B4ADEF30F0AFFE
:10615700EF30F0BFEF30F033EC30F01CEC2EF017DF
:10616700EC30F00009D8B4BBEF30F0BDEF30F0B33E
:10617700EF30F01CEC2EF033EC30F062EC2FF01C1B
:10618700EC2EF04DEC2FF0010E5B6E1200000E08A6
:106197006EDE0E096E010E13EC32F0000E086E0E65
:1061A700C009F0000E13EC32F0000E086EDF0E0986
:1061B7006E010E13EC32F0010E086E010E35EC3154
:1061C700F0106E1050116E126A11C00EF012C00F4F
:1061D700F01200036E000E016E035043EC32F00024
:1061E7000E016E0338F00B43EC32F0020E0318D8A1
:1061F700B400EF31F002EF31F00AEF31F00304D8C9
:10620700A408EF31F00AEF31F00EEF31F0A2EC2FD6
:10621700F010EF31F085EC2EF012000E0EF66E61E5
:106227000EF76E000EF86E00EE60F010EE40F0090B
:1062370000F5CFEEFFE550E150FAE1370EF66E5C60
:106247000EF76E000EF86E0900F5CF5FF000EE3224
:10625700F02D0EEE6AE806FDE1000EF86E0001393A
:10626700EF2FF00A6E000E0D6E000E0C6E000E0B77
:106277006EFEEC2FF0096E0D500D2409100D6E0BFC
:106287004A0C2A0C5009E1080E0B5CD8A04EEF31DE
:10629700F050EF31F03CEF31F00A508AEC31F00862
:1062A70050D8B459EF31F05BEF31F05DEF31F0B911
:1062B700EC2FF00D501200000E096E000E086E75DF
:1062C700EF31F008500424066E09500520076E06CA
:1062D700C0F6FF07C0F7FF0800F550B8EC2EF0082E
:1062E7004A092A08500424066E09500520076E063D
:1062F700C0F6FF07C0F7FF0800F5500009D8A487CC
:10630700EF31F089EF31F065EF31F01200076E07DA
:1063170050D8B491EF31F093EF31F097EF31F0337C
:10632700EC30F099EF31F062EC2FF01CEC2EF01707
:10633700EC30F00009D8B4A3EF31F0A5EF31F09BB2
:10634700EF31F00750D8B4ABEF31F0ADEF31F0AF2C
:10635700EF31F033EC30F01CEC2EF04DEC2FF01C4D
:10636700EC2EF01200000E0D6E010E0C6E000E0BDF
:106377006E000E0A6ED0EF31F00CC001F00DC002B6
:10638700F0000E046E0A0E036EC7EC2EF001C00C6F
:10639700F002C00DF00A4A0B2A07500A5C0B508026
:1063A7000A096E0850800A0958D8A0DDEF31F0DFDE
:1063B700EF31F0C0EF31F00CC007F00DC008F0125C
:1063C70000FAEF31F013C0F6FF14C0F7FFF86A07C1
:1063D7000EF76403D00800F55005D0F6CFE9FFF7B4
:1063E700CFEAFFEF507AEC2EF0134A142A13C0F6C7
:1063F700FF14C0F7FFF86A070EF76403D00800F52B
:106407005005D0F6CFE9FFF7CFEAFFEF500009D8E4
:10641700A410EF32F012EF32F0E6EF31F012000A7B
:106427006E0A50D8B41AEF32F01CEF32F01EEF327A
:10643700F0A7EC30F0000E0B6E09BE25EF32F02806
:10644700EF32F0010E29EF32F0000E8AEC31F0D86E
:106457009009360B2A070E0B6434EF32F036EF3211
:10646700F020EF32F0FEEC2FF00850D8B43EEF32B8
:10647700F040EF32F042EF32F0B9EC2FF0120002A9
:106487006E0150D8B44AEF32F04CEF32F04FEF3292
:10649700F0838050EF32F0839002AE55EF32F05721
:1064A700EF32F05AEF32F083845BEF32F0839402DD
:1064B700AC60EF32F062EF32F065EF32F08388665E
:1064C700EF32F0839802AA6BEF32F06DEF32F07083
:1064D700EF32F0838A71EF32F0839A02A876EF32B7
:1064E700F078EF32F07BEF32F0838C7CEF32F08381
:1064F7009C21EC2EF012009590959E959C959A956F
:10650700989594000E046EA2EC2FF0042A060E0450
:106517006490EF32F092EF32F087EF32F0000E0125
:106527006E300E43EC32F0A2EC2FF0000E016E300D
:106537000E43EC32F0A2EC2FF0000E016E300E434A
:10654700EC32F0A2EC2FF0000E016E200E43EC327D
:10655700F0A2EC2FF0280EEDEC30F0060EEDEC304B
:10656700F00C0EEDEC30F0010EEDEC30F012008186
:10657700B4C0EF32F0C2EF32F0C5EF32F05C80C644
:10658700EF32F05C9081B6CBEF32F0CDEF32F0D046
:10659700EF32F05C82D1EF32F05C9281BAD6EF3203
:1065A700F0D8EF32F0DBEF32F05C84DCEF32F05CF6
:1065B7009481B8E1EF32F0E3EF32F0E6EF32F05CCE
:1065C70086E7EF32F05C9684B2ECEF32F0EEEF3212
:1065D700F0F1EF32F05C88F2EF32F05C985C505FDC
:1065E70018D8A4F9EF32F0FBEF32F0FEEF32F05D8E
:1065F7000602EF33F0010E5D6E5CC05FF05D50D8B0
:10660700A408EF33F00AEF33F00CEF33F05FC05E0E
:10661700F01200000E0E6E0ABE16EF33F014EF33C1
:10662700F01CEF33F0096C0A1ED8B00A2A010E0ECF
:106637006E0CBE23EF33F021EF33F027EF33F00B6F
:106647006C0C1ED8B00C2A0B500C10D8B42EEF339C
:10665700F030EF33F054EF33F0010E0D6E38EF33B7
:10666700F0D8900B360C360D2A0CAE3DEF33F03FC9
:10667700EF33F034EF33F00B50095C0C500A58D865
:10668700A048EF33F04AEF33F04EEF33F00B5009E9
:106697005E0C500A5AD8900C320B320D2E3FEF3356
:1066A700F00E50D8B45AEF33F05CEF33F060EF33AD
:1066B700F0096C0A1ED8B00A2A09C009F00AC00AF4
:1066C700F01200000E066E04BE6EEF33F06CEF336F
:1066D700F074EF33F0036C041ED8B0042A010E06E1
:1066E7006E02BE7BEF33F079EF33F081EF33F001C9
:1066F7006C021ED8B0022A010E061A000E086E00A0
:106707000E076E03500410D8B48CEF33F08EEF33BE
:10671700F0B6EF33F0010E056E96EF33F0D8900325
:10672700360436052A04AE9BEF33F09DEF33F09223
:10673700EF33F0D890073608360350015C04500257
:1067470058D8A0A9EF33F0ABEF33F0B0EF33F00335
:1067570050015E0450025A0780D890043203320574
:106767002E9DEF33F00650D8B4BCEF33F0BEEF33B5
:10677700F0C2EF33F0076C081ED8B0082A07C00133
:10678700F008C002F0120018BECEEF33F0CCEF33A2
:10679700F0D5EF33F0176C181ED8B0182A2D0EB8A5
:1067A700EC2EF0270E046E100E036E17C001F018C2
:1067B700C002F065EC33F001C009F002C00AF00036
:1067C7000E0C6E0A0E0B6E0DEC33F00950300FB83D
:1067D700EC2EF0030E046EE80E036E17C001F018DE
:1067E700C002F065EC33F001C009F002C00AF00006
:1067F7000E0C6E0A0E0B6E0DEC33F00950300FB80D
:10680700EC2EF0000E046E640E036E17C001F01834
:10681700C002F065EC33F001C009F002C00AF000D5
:106827000E0C6E0A0E0B6E0DEC33F00950300FB8DC
:10683700EC2EF0000E046E0A0E036E17C001F0185E
:10684700C002F065EC33F001C009F002C00AF000A5
:106857000E0C6E0A0E0B6E0DEC33F00950300FB8AC
:10686700EC2EF017C009F018C00AF0000E0C6E0AE3
:106877000E0B6E0DEC33F00950300FB8EC2EF01202
:1068870000000E1D6E000E1C6E000E166E000E151B
:106897006E0F501010D8A453EF34F055EF34F06357
:1068A700EF34F01150D96EDA6A300EDF6E1C4A1DD4
:1068B7002A11501C24D96EDA6ADF6AEEEF34F01021
:1068C700BE6AEF34F068EF34F099EF34F0000E163B
:1068D7006E010E156E0F6C101ED8B0102A99EF348A
:1068E700F00FC009F010C00AF0000E0C6E0A0E0B74
:1068F7006E0DEC33F009C013F00AC014F011501CF0
:1069070024D96EDA6A1350300FDF6E1C4A1D2A0F26
:10691700C001F010C002F0000E046E0A0E036E658F
:10692700EC33F001C00FF002C010F00F501010D878
:10693700A4A0EF34F0A2EF34F074EF34F015501642
:1069470010D8B4A9EF34F0ABEF34F0B3EF34F01153
:10695700501C24D96EDA6A2D0EDF6E1C4A1D2A11CF
:10696700501C24D96EDA6ADF6A000E196E000E1801
:106977006EFF0E1C241A6EFF0E1D201B6EDFEF34F8
:10698700F011501824D96EDA6ADF50176E11501AB9
:1069970024D96EDA6A11501824E16EE26ADFCFE774
:1069A700FF11501A24D96EDA6A17C0DFFF184A1987
:1069B7002A1A06D8A01B061A50185C1950800A120A
:1069C7006E1B50800A1258D8A0ECEF34F0EEEF346B
:1069D700F0C4EF34F0120002BEFDEF34F0025007AE
:1069E700E1080E015CD8B0FBEF34F0FDEF34F01195
:1069F700EF35F001C003F0010E046E032A06EF35F0
:106A0700F0D8900436032E04EF35F00450801405B7
:106A17006E0550016E026AA3EF35F002BE1FEF3517
:106A2700F0025007E1100E015CD8B01DEF35F01FE2
:106A3700EF35F035EF35F001C003F0F80E0326010E
:106A47000E046E032A2AEF35F0D8900436032E2859
:106A5700EF35F004508114056E0550016E026AA3EC
:106A6700EF35F002BE43EF35F0025007E1180E0193
:106A77005CD8B041EF35F043EF35F059EF35F00111
:106A8700C003F0F00E0326010E046E032A4EEF3505
:106A9700F0D8900436032E4CEF35F00450821405DD
:106AA7006E0550016E026AA3EF35F002BE67EF353F
:106AB700F0025007E1200E015CD8B065EF35F067B2
:106AC700EF35F07DEF35F001C003F0E80E03260146
:106AD7000E046E032A72EF35F0D8900436032E7039
:106AE700EF35F004508314056E0550016E026AA35A
:106AF700EF35F002BE8BEF35F0025007E1280E01AB
:106B07005CD8B089EF35F08BEF35F0A1EF35F001A8
:106B1700C003F0E00E0326010E046E032A96EF353C
:106B2700F0D8900436032E94EF35F0045084140502
:106B37006E0550016E026AA3EF35F0016802681214
:106B47000002BEB2EF35F0025007E1080E015CD833
:106B5700B0B0EF35F0B2EF35F0DCEF35F0035004AD
:106B670010D8B4B9EF35F0BBEF35F0CBEF35F00106
:106B7700C005F0010E066E052AC4EF35F0D8900661
:106B870036052EC2EF35F006508012CAEF36F001F7
:106B9700C005F0010E066E052AD4EF35F0D8900631
:106BA70036052ED2EF35F00650FF0A8016CAEF36AB
:106BB700F002BEEAEF35F0025007E1100E015CD893
:106BC700B0E8EF35F0EAEF35F018EF36F0F80E01E0
:106BD70026FF0E022203500410D8B4F5EF35F0F764
:106BE700EF35F007EF36F001C005F0010E066E0530
:106BF7002A00EF36F0D8900636052EFEEF35F00660
:106C0700508112CAEF36F001C005F0010E066E057D
:106C17002A10EF36F0D8900636052E0EEF36F0061E
:106C270050FF0A8116CAEF36F002BE26EF36F00291
:106C37005007E1180E015CD8B024EF36F026EF3686
:106C4700F054EF36F0F00E0126FF0E022203500437
:106C570010D8B431EF36F033EF36F043EF36F001AA
:106C6700C005F0010E066E052A3CEF36F0D89006F7
:106C770036052E3AEF36F006508212CAEF36F0018B
:106C8700C005F0010E066E052A4CEF36F0D89006C7
:106C970036052E4AEF36F00650FF0A8216CAEF363F
:106CA700F002BE62EF36F0025007E1200E015CD819
:106CB700B060EF36F062EF36F090EF36F0E80E0195
:106CC70026FF0E022203500410D8B46DEF36F06F82
:106CD700EF36F07FEF36F001C005F0010E066E05C6
:106CE7002A78EF36F0D8900636052E76EF36F0067E
:106CF700508312CAEF36F001C005F0010E066E058B
:106D07002A88EF36F0D8900636052E86EF36F0063D
:106D170050FF0A8316CAEF36F002BE9EEF36F00226
:106D27005007E1280E015CD8B09CEF36F09EEF3695
:106D3700F0CAEF36F0E00E0126FF0E0222035004E0
:106D470010D8B4A9EF36F0ABEF36F0BBEF36F00151
:106D5700C005F0010E066E052AB4EF36F0D890068E
:106D670036052EB2EF36F006508412CAEF36F00120
:106D7700C005F0010E066E052AC4EF36F0D890065E
:106D870036052EC2EF36F00650FF0A8416120002AF
:106D9700BED9EF36F0025007E1080E015CD8B0D734
:106DA700EF36F0D9EF36F003EF37F003500410D881
:106DB700B4E0EF36F0E2EF36F0F2EF36F001C0055F
:106DC700F0010E066E052AEBEF36F0D89006360571
:106DD7002EE9EF36F006509212F1EF37F001C005B9
:106DE700F0010E066E052AFBEF36F0D89006360541
:106DF7002EF9EF36F00650FF0A9216F1EF37F00240
:106E0700BE11EF37F0025007E1100E015CD8B00F4A
:106E1700EF37F011EF37F03FEF37F003500410D89A
:106E2700B418EF37F01AEF37F02CEF37F001C00541
:106E3700F0F80E0526010E066E052A25EF37F0D865
:106E4700900636052E23EF37F006509312F1EF37F1
:106E5700F001C005F0F80E0526010E066E052A376B
:106E6700EF37F0D8900636052E35EF37F00650FF8E
:106E77000A9316F1EF37F002BE4DEF37F0025007D5
:106E8700E1180E015CD8B04BEF37F04DEF37F07BD0
:106E9700EF37F003500410D8B454EF37F056EF37FC
:106EA700F068EF37F001C005F0F00E0526010E0679
:106EB7006E052A61EF37F0D8900636052E5FEF375B
:106EC700F006509412F1EF37F001C005F0F00E050F
:106ED70026010E066E052A73EF37F0D890063605A1
:106EE7002E71EF37F00650FF0A9416F1EF37F002D4
:106EF700BE89EF37F0025007E1200E015CD8B0875A
:106F0700EF37F089EF37F0B7EF37F003500410D8B9
:106F1700B490EF37F092EF37F0A4EF37F001C005E8
:106F2700F0E80E0526010E066E052A9DEF37F0D80C
:106F3700900636052E9BEF37F006509512F1EF3786
:106F4700F001C005F0E80E0526010E066E052AAF12
:106F5700EF37F0D8900636052EADEF37F00650FF25
:106F67000A9516F1EF37F002BEC5EF37F00250076A
:106F7700E1280E015CD8B0C3EF37F0C5EF37F0F169
:106F8700EF37F003500410D8B4CCEF37F0CEEF371B
:106F9700F0E0EF37F001C005F0E00E0526010E0620
:106FA7006E052AD9EF37F0D8900636052ED7EF377A
:106FB700F006509612F1EF37F001C005F0E00E052C
:106FC70026010E066E052AEBEF37F0D89006360538
:106FD7002EE9EF37F00650FF0A96161200000E2032
:106FE7006E050E1F6E1DEC2EF01B6E1B50246E25BA
:106FF7006A4D50241809E14E502518D8B406EF38C9
:10700700F008EF38F029EF38F024A00DEF38F00F33
:10701700EF38F013EF38F0000E206E030E1F6E24CA
:10702700A218EF38F01AEF38F01EEF38F0000E20F4
:107037006E020E1F6E24A423EF38F025EF38F029D7
:10704700EF38F0000E206E040E1F6E24C04DF025A1
:10705700C04EF08CEC2FF0596E5950D8B436EF383B
:10706700F038EF38F03FEF39F05A50D8B43EEF38E8
:10707700F040EF38F049EF38F05A50380FD96EDA50
:107087006A59C0DFFF5A2A76EF38F0770E5918D8B9
:10709700A450EF38F052EF38F058EF38F0000E20D8
:1070A7006E040E1F6E76EF38F0610E5918D8A45F84
:1070B700EF38F061EF38F067EF38F0000E206E021E
:1070C7000E1F6E76EF38F0640E5918D8A46EEF389D
:1070D700F070EF38F076EF38F0000E206E030E1FD9
:1070E7006E76EF38F0700E5918D8A47DEF38F07F20
:1070F700EF38F03FEF39F05A50D8A485EF38F087D2
:10710700EF38F09CEF38F0010E5A6E000E216E2119
:1071170050390FD96EDA6A300EDF6E212A050E213B
:107127006498EF38F09AEF38F08BEF38F03FEF398B
:10713700F0000E276E000E266E5A50FD0F226E22AB
:1071470050D8A4A9EF38F0ABEF38F0ADEF38F0D94D
:10715700EF38F022505AC01BF01C6A1B5E000E1C51
:107167005AFD0E1B24076EFF0E1C20086EB6EC316D
:10717700F007C01DF008C01EF02250390FD96EDA93
:107187006ADF501B6ED00E1B24016E026AFF0E02CF
:10719700221DC003F01EC004F0C7EC2EF0015026DC
:1071A70026025027222206A3EF38F0480E3918D8B6
:1071B700A4E0EF38F0E2EF38F0E5EF38F0265000C2
:1071C700EC2FF04D0E3918D8A4ECEF38F0EEEF386D
:1071D700F0F1EF38F0265013EC2FF0530E3918D892
:1071E700A4F8EF38F0FAEF38F0FDEF38F026502624
:1071F700EC2FF04C0E3918D8A404EF39F006EF390C
:10720700F00AEF39F02650030B91EC2EF0410E39BE
:1072170018D8A411EF39F013EF39F019EF39F02628
:10722700C017F027C018F0EDEC2EF0610E3918D812
:10723700A420EF39F022EF39F028EF39F026C017F4
:10724700F027C018F0DAEC2EF0000E236E23503929
:107257000FD96EDA6A2350320FE16EE26ADFCFE7A9
:10726700FF232A050E23643BEF39F03DEF39F02A5F
:10727700EF39F0000E5A6E1FC019F020C01AF01235
:107287000067EC2EF033EC2EF001C049F002C04A43
:10729700F0F2EC37F01950316EFAEF3AF0030E3195
:1072A70018D8A459EF39F05BEF39F065EF39F06B77
:1072B700EC30F0010E1324176E000E1420186EED3B
:1072C700EC2EF0020E3118D8A46CEF39F06EEF39BE
:1072D700F078EF39F06BEC30F0FF0E1324176EFFE8
:1072E7000E1420186EEDEC2EF0040E3118D8A47F82
:1072F700EF39F081EF39F01AEF3BF0010E2AEC2E4F
:10730700F01AEF3BF0030E3118D8A48DEF39F08F48
:10731700EF39F099EF39F04FEC30F0010E132417E5
:107327006E000E1420186EDAEC2EF0020E3118D80B
:10733700A4A0EF39F0A2EF39F0ACEF39F04FEC3001
:10734700F0FF0E1324176EFF0E1420186EDAEC2EC2
:10735700F0040E3118D8A4B3EF39F0B5EF39F01AAD
:10736700EF3BF0020E2AEC2EF01AEF3BF0030E3142
:1073770018D8A4C1EF39F0C3EF39F0C9EF39F03F9E
:10738700EC2EF02C6E2C2800EC2FF0020E3118D8C2
:10739700A4D0EF39F0D2EF39F0D8EF39F03FEC2E27
:1073A700F02C6E2C0400EC2FF0040E3118D8A4DF5B
:1073B700EF39F0E1EF39F01AEF3BF0030E2AEC2E2C
:1073C700F01AEF3BF0030E3118D8A4EDEF39F0EFC8
:1073D700EF39F0F5EF39F04FEC2EF02C6E2C281327
:1073E700EC2FF0020E3118D8A4FCEF39F0FEEF397C
:1073F700F004EF3AF04FEC2EF02C6E2C0413EC2F28
:10740700F0040E3118D8A40BEF3AF00DEF3AF01A4A
:10741700EF3BF0040E2AEC2EF01AEF3BF0030E318F
:1074270018D8A419EF3AF01BEF3AF021EF3AF057CA
:10743700EC2EF02C6E2C2826EC2FF0020E3118D8EB
:10744700A428EF3AF02AEF3AF030EF3AF057EC2E53
:10745700F02C6E2C0426EC2FF0040E3118D8A4372C
:10746700EF3AF039EF3AF01AEF3BF0050E2AEC2E1F
:10747700F01AEF3BF0030E3118D8A445EF3AF04766
:10748700EF3AF04DEF3AF047EC2EF02C6E2C2891A6
:10749700EC2EF0020E3118D8A454EF3AF056EF3A1A
:1074A700F05CEF3AF047EC2EF02C6E2C0491EC2EAA
:1074B700F0040E3118D8A463EF3AF065EF3AF01AEA
:1074C700EF3BF0000E2AEC2EF01AEF3BF0050E31E1
:1074D70018D8B471EF3AF073EF3AF091EF3AF04CF5
:1074E700BE7EEF3AF04C5008E14B04D8A07EEF3A4D
:1074F700F080EF3AF091EF3AF0000E2AEC2EF00010
:107507000E4C6E000E4B6E000E486E000E476E025C
:107517000E466EBC0E456EA6EF3AF0050E3118D832
:10752700B498EF3AF09AEF3AF0A6EF3AF04CBEA1D2
:10753700EF3AF09FEF3AF0A6EF3AF0010E2AEC2E61
:10754700F083EF3AF067EC2EF04CBEB3EF3AF04C15
:107557005008E14B04D8A0B3EF3AF0B5EF3AF0D3B7
:10756700EF3AF033EC2EF001C02CF002C02DF06B97
:10757700EC30F013502C5C2D50800A2E6E14508086
:107587000A2E58D8B0CAEF3AF0CCEF3AF0D3EF3A18
:10759700F0000E2AEC2EF0000E466E000E456E4CE3
:1075A700BEDAEF3AF0D8EF3AF01AEF3BF04FEC3093
:1075B700F013C02CF014C02DF033EC2EF001502C3A
:1075C7005C2D50800A2E6E0250800A2E58D8B0EFDC
:1075D700EF3AF0F1EF3AF01AEF3BF0010E2AEC2EFA
:1075E700F0000E466E000E456E1AEF3BF01FEC2EB4
:1075F700F0000AD8B452EF39F0010AD8B486EF394F
:10760700F0030AD8B4BAEF39F0010AD8B4E6EF3973
:10761700F0070AD8B412EF3AF0010AD8B43EEF3AAD
:10762700F0030AD8B46AEF3AF01AEF3BF047EC2EB2
:10763700F02C6E2C502F6E306A1FEC2EF02C6E2C17
:1076470050196E1A6A2FC01BF030C01CF0F3EC3BC8
:10765700F04FEC30F04950135C1450800A2C6E4AFE
:1076670050800A2C58D8A03BEF3BF03DEF3BF08908
:10767700EF3BF045504610D8A444EF3BF046EF3BB4
:10768700F089EF3BF0060E2AEC2EF04B684C6802AF
:107697000E466EBC0E456E47504810D8A456EF3BB9
:1076A700F058EF3BF0DCEF3BF047EC2EF0020DF328
:1076B70050980FD96EDA6ADECF13F0DDCF14F0E4FD
:1076C700EC31F03FEC2EF02C6E2C501E6E1F6AAA88
:1076D700EC2EF03A0E7AEC2EF04FEC2EF02C6E2CAE
:1076E700501E6E1F6AAAEC2EF03A0E7AEC2EF05757
:1076F700EC2EF02C6E2C501E6E1F6AAAEC2EF0009A
:107707000E486E010E476EDCEF3BF06BEC30F0136A
:1077170050495C4A50800A2C6E1450800A2C58D865
:10772700A098EF3BF09AEF3BF0DCEF3BF04550467B
:1077370010D8A4A1EF3BF0A3EF3BF0DCEF3BF00642
:107747000E2AEC2EF0000E4C6E010E4B6E020E460A
:107757006EBC0E456E47504810D8A4B5EF3BF0B746
:10776700EF3BF0DCEF3BF047EC2EF0020DF35098C7
:107777000FD96EDA6ADECF13F0DDCF14F0E4EC3107
:10778700F03FEC2EF02C6E2C501E6E1F6AAAEC2ECA
:10779700F03A0E7AEC2EF04FEC2EF02C6E2C501E99
:1077A7006E1F6AAAEC2EF03A0E7AEC2EF07BEF3BB6
:1077B700F046BEE7EF3BF0465008E14504D8A0E7A6
:1077C700EF3BF0E9EF3BF0EEEF3BF04506D8A04684
:1077D70006F2EF3BF0000E486E000E476E120002F5
:1077E7000E19181A10D8A4FBEF3BF0FDEF3BF095EC
:1077F700EF3CF0800EEDEC30F01B50020DF3CF1D87
:10780700F01950080DF350600F1D24D96EDA6ADEA7
:10781700CF04F0DDCF05F05FEC31F0C00EEDEC30BA
:10782700F03FEC2EF01E6E4FEC2EF01F6E57EC2E35
:10783700F0206E000E046E0A0E036E1EC001F002E9
:107847006A65EC33F001C009F002C00AF0000E0CC3
:107857006E0A0E0B6E0DEC33F00950300FB8EC2E9C
:10786700F01EC009F00A6A000E0C6E0A0E0B6E0DB0
:10787700EC33F00950300FB8EC2EF03A0EB8EC2E7E
:10788700F0000E046E0A0E036E1FC001F0026A6557
:10789700EC33F001C009F002C00AF0000E0C6E0ACA
:1078A7000E0B6E0DEC33F00950300FB8EC2EF01FB5
:1078B700C009F00A6A000E0C6E0A0E0B6E0DEC334F
:1078C700F00950300FB8EC2EF03A0EB8EC2EF0005D
:1078D7000E046E0A0E036E20C001F0026A65EC33D7
:1078E700F001C009F002C00AF0000E0C6E0A0E0B80
:1078F7006E0DEC33F00950300FB8EC2EF020C009B4
:10790700F00A6A000E0C6E0A0E0B6E0DEC33F009CE
:1079170050300FB8EC2EF0A50E046E7D0E056E5F8D
:10792700EC31F0030E19181A10D8A49DEF3CF09F04
:10793700EF3CF037EF3DF0800EEDEC30F01B5002DE
:107947000DF3CF1DF01950080DF350600F1D24D90A
:107957006EDA6ADECF04F0DDCF05F05FEC31F0C000
:107967000EEDEC30F03FEC2EF0216E4FEC2EF022B6
:107977006E57EC2EF0236E000E046E0A0E036E2176
:10798700C001F0026A65EC33F001C009F002C00AD9
:10799700F0000E0C6E0A0E0B6E0DEC33F009503032
:1079A7000FB8EC2EF021C009F00A6A000E0C6E0A1F
:1079B7000E0B6E0DEC33F00950300FB8EC2EF03A89
:1079C7000EB8EC2EF0000E046E0A0E036E22C001F4
:1079D700F0026A65EC33F001C009F002C00AF0005A
:1079E7000E0C6E0A0E0B6E0DEC33F00950300FB80B
:1079F700EC2EF022C009F00A6A000E0C6E0A0E0B7C
:107A07006E0DEC33F00950300FB8EC2EF03A0EB88B
:107A1700EC2EF0000E046E0A0E036E23C001F00276
:107A27006A65EC33F001C009F002C00AF0000E0CE1
:107A37006E0A0E0B6E0DEC33F00950300FB8EC2EBA
:107A4700F023C009F00A6A000E0C6E0A0E0B6E0DC9
:107A5700EC33F00950300FB8EC2EF0A50E046E7D14
:107A67000E056E5FEC31F0040E19181A10D8A43FFA
:107A7700EF3DF041EF3DF0D9EF3DF0800EEDEC30FA
:107A8700F01B50020DF3CF1DF01950080DF3506095
:107A97000F1D24D96EDA6ADECF04F0DDCF05F05F63
:107AA700EC31F0C00EEDEC30F03FEC2EF0246E4FD1
:107AB700EC2EF0256E57EC2EF0266E000E046E0AA3
:107AC7000E036E24C001F0026A65EC33F001C009B1
:107AD700F002C00AF0000E0C6E0A0E0B6E0DEC33AE
:107AE700F00950300FB8EC2EF024C009F00A6A00F4
:107AF7000E0C6E0A0E0B6E0DEC33F00950300FB8FA
:107B0700EC2EF03A0EB8EC2EF0000E046E0A0E03BF
:107B17006E25C001F0026A65EC33F001C009F0027E
:107B2700C00AF0000E0C6E0A0E0B6E0DEC33F00956
:107B370050300FB8EC2EF025C009F00A6A000E0C81
:107B47006E0A0E0B6E0DEC33F00950300FB8EC2EA9
:107B5700F03A0EB8EC2EF0000E046E0A0E036E26F5
:107B6700C001F0026A65EC33F001C009F002C00AF7
:107B7700F0000E0C6E0A0E0B6E0DEC33F009503050
:107B87000FB8EC2EF026C009F00A6A000E0C6E0A38
:107B97000E0B6E0DEC33F00950300FB8EC2EF0A53C
:107BA7000E046E7D0E056E5FEC31F019501A10D879
:107BB700A4E0EF3DF0E2EF3DF00FEF3EF0800EED79
:107BC700EC30F01B50020DF3CF1DF01950080DF3E8
:107BD70050600F1D24D96EDA6ADECF04F0DDCF05C1
:107BE700F05FEC31F0C00EEDEC30F06BEC30F013E1
:107BF700C017F014C018F0C7EC33F0A70E046E7D61
:107C07000E056E5FEC31F033EC2EF001C017F00279
:107C1700C018F0C7EC33F019041A10D8A416EF3EB9
:107C2700F018EF3EF045EF3EF0800EEDEC30F01B24
:107C370050020DF3CF1DF01950080DF350600F1DC2
:107C470024D96EDA6ADECF04F0DDCF05F05FEC31C0
:107C5700F0C00EEDEC30F04FEC30F013C017F0141D
:107C6700C018F0C7EC33F0A70E046E7D0E056E5FEB
:107C7700EC31F033EC2EF001C017F002C018F0C75A
:107C8700EC33F0050E19181A10D8A44DEF3EF04F3B
:107C9700EF3EF0A6EF3EF0800EEDEC30F01B500209
:107CA7000DF3CF1DF01950080DF350600F1D24D9A7
:107CB7006EDA6ADECF04F0DDCF05F05FEC31F0C09D
:107CC7000EEDEC30F047EC2EF00009D8A46EEF3E35
:107CD700F070EF3EF076EF3EF0E10E046E7D0E059C
:107CE7006E5FEC31F047EC2EF0E806D8A47EEF3E4D
:107CF700F080EF3EF086EF3EF0AE0E046E7D0E058F
:107D07006E5FEC31F047EC2EF0020AD8A48EEF3EFE
:107D1700F090EF3EF096EF3EF0D00E046E7D0E052C
:107D27006E5FEC31F047EC2EF0030AD8A49EEF3ECD
:107D3700F0A0EF3EF0A6EF3EF0BF0E046E7D0E05FD
:107D47006E5FEC31F0060E19181A10D8A4AEEF3E8C
:107D5700F0B0EF3EF0CDEF3EF0800EEDEC30F01BD3
:107D670050020DF3CF1DF01950080DF350600F1D91
:107D770024D96EDA6ADECF04F0DDCF05F05FEC318F
:107D8700F0C00EEDEC30F09D0E046E7D0E056E5FBB
:107D9700EC31F0120000202020202020202020207D
:107DA70020202020202000456E676C697368202002
:107DB7002020202020202000457370616E6F6C20EA
:107DC7002020202020202020004672616E636169F8
:107DD70073652020202020202000506F7274756763
:107DE70075657320202020202020004368616E677E
:107DF7006520534543202020202020004368616EE2
:107E07006765204D494E2020202020200043616DCA
:107E17006269617220534547202020202000416C71
:107E2700746572617220534547202020202000434B
:107E3700616D62696172204D494E2020202020002B
:107E4700416C7465726172204D494E2020202020BC
:107E5700004368616E676520484F555220202020F7
:107E67002000557070657220416C61726D20202072
:107E77002020004C6F77657220416C61726D202065
:107E87002020200043616D6269617220484F524192
:107E970020202020004368616E67657220484555A1
:107EA700524520202000416C746572617220484F52
:107EB700524153202020004368616E676572204D50
:107EC700494E55544520200043616D626961722017
:107ED7006964696F6D61202000416C74657261721D
:107EE700206964696F6D612020004368616E676572
:107EF70072206C616E677565202000414C41524DC0
:107F07004520414354495645202120004368616E6E
:107F1700676572205345434F4E44452000436861CF
:107F27006E6765206C616E67756167652000416CDF
:107F370061726D6520496E666572696F72200041D6
:107F47006C61726D6120696E666572696F7220007F
:107F5700416C61726D65205375706572696F72202F
:107F670000416C61726D61207375706572696F7223
:107F77002000414C41524D41204143544956414410
:107F8700412100414C41524D2041435449564154EF
:107F970045442100414C41524D45204143494F4EF4
:107FA70041444F2100416C61726D6520696E6665C1
:107FB700726965757200416C61726D6520737570C9
:107FC7006572696575720041435449564154454489
:107FD70020415420004143494F4E41444F20454DD5
:107FE7002000414354495641444F2041200041431A
:097FF700544956452041200000C8
:020000040030CA
:08000000000C1F1EFF8381FFAD
:00000001FF
